{
  "_format": "hh-sol-artifact-1",
  "contractName": "TrackPharma",
  "sourceName": "contracts/TrackPharma.sol",
  "abi": [
    {
      "inputs": [
        {
          "internalType": "string",
          "name": "_name",
          "type": "string"
        },
        {
          "internalType": "string",
          "name": "_email",
          "type": "string"
        }
      ],
      "stateMutability": "nonpayable",
      "type": "constructor"
    },
    {
      "anonymous": false,
      "inputs": [
        {
          "indexed": false,
          "internalType": "string",
          "name": "name",
          "type": "string"
        },
        {
          "indexed": false,
          "internalType": "string",
          "name": "manufacturerName",
          "type": "string"
        },
        {
          "indexed": false,
          "internalType": "string",
          "name": "barcodeId",
          "type": "string"
        },
        {
          "indexed": false,
          "internalType": "string",
          "name": "buyerName",
          "type": "string"
        },
        {
          "indexed": false,
          "internalType": "string",
          "name": "buyerEmail",
          "type": "string"
        }
      ],
      "name": "ItemOwnershipTransfer",
      "type": "event"
    },
    {
      "anonymous": false,
      "inputs": [
        {
          "indexed": false,
          "internalType": "string",
          "name": "name",
          "type": "string"
        },
        {
          "indexed": false,
          "internalType": "string",
          "name": "email",
          "type": "string"
        },
        {
          "indexed": false,
          "internalType": "enum Types.AccountRole",
          "name": "role",
          "type": "uint8"
        }
      ],
      "name": "LostAccount",
      "type": "event"
    },
    {
      "anonymous": false,
      "inputs": [
        {
          "indexed": false,
          "internalType": "string",
          "name": "name",
          "type": "string"
        },
        {
          "indexed": false,
          "internalType": "string",
          "name": "email",
          "type": "string"
        },
        {
          "indexed": false,
          "internalType": "enum Types.AccountRole",
          "name": "role",
          "type": "uint8"
        }
      ],
      "name": "NewAccount",
      "type": "event"
    },
    {
      "anonymous": false,
      "inputs": [
        {
          "indexed": false,
          "internalType": "string",
          "name": "name",
          "type": "string"
        },
        {
          "indexed": false,
          "internalType": "string",
          "name": "manufacturerName",
          "type": "string"
        },
        {
          "indexed": false,
          "internalType": "string",
          "name": "barcodeId",
          "type": "string"
        },
        {
          "indexed": false,
          "internalType": "uint256",
          "name": "manufacturedDate",
          "type": "uint256"
        },
        {
          "indexed": false,
          "internalType": "uint256",
          "name": "expiringDate",
          "type": "uint256"
        }
      ],
      "name": "NewItem",
      "type": "event"
    },
    {
      "inputs": [
        {
          "components": [
            {
              "internalType": "string",
              "name": "name",
              "type": "string"
            },
            {
              "internalType": "string",
              "name": "manufacturerName",
              "type": "string"
            },
            {
              "internalType": "address",
              "name": "manufacturer",
              "type": "address"
            },
            {
              "internalType": "uint256",
              "name": "manufacturedDate",
              "type": "uint256"
            },
            {
              "internalType": "uint256",
              "name": "expiringDate",
              "type": "uint256"
            },
            {
              "internalType": "bool",
              "name": "isInBatch",
              "type": "bool"
            },
            {
              "internalType": "uint256",
              "name": "batchCount",
              "type": "uint256"
            },
            {
              "internalType": "string",
              "name": "barcodeId",
              "type": "string"
            },
            {
              "internalType": "string",
              "name": "itemImage",
              "type": "string"
            },
            {
              "internalType": "enum Types.ItemType",
              "name": "itemType",
              "type": "uint8"
            },
            {
              "internalType": "string",
              "name": "usage",
              "type": "string"
            },
            {
              "internalType": "string[]",
              "name": "others",
              "type": "string[]"
            }
          ],
          "internalType": "struct Types.Item",
          "name": "_item",
          "type": "tuple"
        },
        {
          "internalType": "uint256",
          "name": "currentTime_",
          "type": "uint256"
        }
      ],
      "name": "addNewItem",
      "outputs": [],
      "stateMutability": "nonpayable",
      "type": "function"
    },
    {
      "inputs": [
        {
          "components": [
            {
              "internalType": "enum Types.AccountRole",
              "name": "role",
              "type": "uint8"
            },
            {
              "internalType": "address",
              "name": "accountId",
              "type": "address"
            },
            {
              "internalType": "string",
              "name": "name",
              "type": "string"
            },
            {
              "internalType": "string",
              "name": "email",
              "type": "string"
            }
          ],
          "internalType": "struct Types.AccountDetails",
          "name": "account_",
          "type": "tuple"
        }
      ],
      "name": "addParty",
      "outputs": [],
      "stateMutability": "nonpayable",
      "type": "function"
    },
    {
      "inputs": [
        {
          "internalType": "address",
          "name": "Id",
          "type": "address"
        }
      ],
      "name": "getAccountDetails",
      "outputs": [
        {
          "components": [
            {
              "internalType": "enum Types.AccountRole",
              "name": "role",
              "type": "uint8"
            },
            {
              "internalType": "address",
              "name": "accountId",
              "type": "address"
            },
            {
              "internalType": "string",
              "name": "name",
              "type": "string"
            },
            {
              "internalType": "string",
              "name": "email",
              "type": "string"
            }
          ],
          "internalType": "struct Types.AccountDetails",
          "name": "",
          "type": "tuple"
        }
      ],
      "stateMutability": "view",
      "type": "function"
    },
    {
      "inputs": [],
      "name": "getAllItems",
      "outputs": [
        {
          "components": [
            {
              "internalType": "string",
              "name": "name",
              "type": "string"
            },
            {
              "internalType": "string",
              "name": "manufacturerName",
              "type": "string"
            },
            {
              "internalType": "address",
              "name": "manufacturer",
              "type": "address"
            },
            {
              "internalType": "uint256",
              "name": "manufacturedDate",
              "type": "uint256"
            },
            {
              "internalType": "uint256",
              "name": "expiringDate",
              "type": "uint256"
            },
            {
              "internalType": "bool",
              "name": "isInBatch",
              "type": "bool"
            },
            {
              "internalType": "uint256",
              "name": "batchCount",
              "type": "uint256"
            },
            {
              "internalType": "string",
              "name": "barcodeId",
              "type": "string"
            },
            {
              "internalType": "string",
              "name": "itemImage",
              "type": "string"
            },
            {
              "internalType": "enum Types.ItemType",
              "name": "itemType",
              "type": "uint8"
            },
            {
              "internalType": "string",
              "name": "usage",
              "type": "string"
            },
            {
              "internalType": "string[]",
              "name": "others",
              "type": "string[]"
            }
          ],
          "internalType": "struct Types.Item[]",
          "name": "",
          "type": "tuple[]"
        }
      ],
      "stateMutability": "view",
      "type": "function"
    },
    {
      "inputs": [],
      "name": "getMyAccountsList",
      "outputs": [
        {
          "components": [
            {
              "internalType": "enum Types.AccountRole",
              "name": "role",
              "type": "uint8"
            },
            {
              "internalType": "address",
              "name": "accountId",
              "type": "address"
            },
            {
              "internalType": "string",
              "name": "name",
              "type": "string"
            },
            {
              "internalType": "string",
              "name": "email",
              "type": "string"
            }
          ],
          "internalType": "struct Types.AccountDetails[]",
          "name": "accountsList_",
          "type": "tuple[]"
        }
      ],
      "stateMutability": "view",
      "type": "function"
    },
    {
      "inputs": [],
      "name": "getMyDetails",
      "outputs": [
        {
          "components": [
            {
              "internalType": "enum Types.AccountRole",
              "name": "role",
              "type": "uint8"
            },
            {
              "internalType": "address",
              "name": "accountId",
              "type": "address"
            },
            {
              "internalType": "string",
              "name": "name",
              "type": "string"
            },
            {
              "internalType": "string",
              "name": "email",
              "type": "string"
            }
          ],
          "internalType": "struct Types.AccountDetails",
          "name": "",
          "type": "tuple"
        }
      ],
      "stateMutability": "view",
      "type": "function"
    },
    {
      "inputs": [],
      "name": "getMyItems",
      "outputs": [
        {
          "components": [
            {
              "internalType": "string",
              "name": "name",
              "type": "string"
            },
            {
              "internalType": "string",
              "name": "manufacturerName",
              "type": "string"
            },
            {
              "internalType": "address",
              "name": "manufacturer",
              "type": "address"
            },
            {
              "internalType": "uint256",
              "name": "manufacturedDate",
              "type": "uint256"
            },
            {
              "internalType": "uint256",
              "name": "expiringDate",
              "type": "uint256"
            },
            {
              "internalType": "bool",
              "name": "isInBatch",
              "type": "bool"
            },
            {
              "internalType": "uint256",
              "name": "batchCount",
              "type": "uint256"
            },
            {
              "internalType": "string",
              "name": "barcodeId",
              "type": "string"
            },
            {
              "internalType": "string",
              "name": "itemImage",
              "type": "string"
            },
            {
              "internalType": "enum Types.ItemType",
              "name": "itemType",
              "type": "uint8"
            },
            {
              "internalType": "string",
              "name": "usage",
              "type": "string"
            },
            {
              "internalType": "string[]",
              "name": "others",
              "type": "string[]"
            }
          ],
          "internalType": "struct Types.Item[]",
          "name": "",
          "type": "tuple[]"
        }
      ],
      "stateMutability": "view",
      "type": "function"
    },
    {
      "inputs": [
        {
          "internalType": "string",
          "name": "barcodeId",
          "type": "string"
        }
      ],
      "name": "getSingleItem",
      "outputs": [
        {
          "components": [
            {
              "internalType": "string",
              "name": "name",
              "type": "string"
            },
            {
              "internalType": "string",
              "name": "manufacturerName",
              "type": "string"
            },
            {
              "internalType": "address",
              "name": "manufacturer",
              "type": "address"
            },
            {
              "internalType": "uint256",
              "name": "manufacturedDate",
              "type": "uint256"
            },
            {
              "internalType": "uint256",
              "name": "expiringDate",
              "type": "uint256"
            },
            {
              "internalType": "bool",
              "name": "isInBatch",
              "type": "bool"
            },
            {
              "internalType": "uint256",
              "name": "batchCount",
              "type": "uint256"
            },
            {
              "internalType": "string",
              "name": "barcodeId",
              "type": "string"
            },
            {
              "internalType": "string",
              "name": "itemImage",
              "type": "string"
            },
            {
              "internalType": "enum Types.ItemType",
              "name": "itemType",
              "type": "uint8"
            },
            {
              "internalType": "string",
              "name": "usage",
              "type": "string"
            },
            {
              "internalType": "string[]",
              "name": "others",
              "type": "string[]"
            }
          ],
          "internalType": "struct Types.Item",
          "name": "",
          "type": "tuple"
        },
        {
          "components": [
            {
              "components": [
                {
                  "internalType": "address",
                  "name": "accountId",
                  "type": "address"
                },
                {
                  "internalType": "uint256",
                  "name": "timestamp",
                  "type": "uint256"
                }
              ],
              "internalType": "struct Types.AccountTransactions",
              "name": "manufacturer",
              "type": "tuple"
            },
            {
              "components": [
                {
                  "internalType": "address",
                  "name": "accountId",
                  "type": "address"
                },
                {
                  "internalType": "uint256",
                  "name": "timestamp",
                  "type": "uint256"
                }
              ],
              "internalType": "struct Types.AccountTransactions",
              "name": "distributor",
              "type": "tuple"
            },
            {
              "components": [
                {
                  "internalType": "address",
                  "name": "accountId",
                  "type": "address"
                },
                {
                  "internalType": "uint256",
                  "name": "timestamp",
                  "type": "uint256"
                }
              ],
              "internalType": "struct Types.AccountTransactions",
              "name": "retailer",
              "type": "tuple"
            },
            {
              "components": [
                {
                  "internalType": "address",
                  "name": "accountId",
                  "type": "address"
                },
                {
                  "internalType": "uint256",
                  "name": "timestamp",
                  "type": "uint256"
                }
              ],
              "internalType": "struct Types.AccountTransactions[]",
              "name": "customers",
              "type": "tuple[]"
            }
          ],
          "internalType": "struct Types.ItemHistory",
          "name": "",
          "type": "tuple"
        }
      ],
      "stateMutability": "view",
      "type": "function"
    },
    {
      "inputs": [
        {
          "internalType": "address",
          "name": "partyId",
          "type": "address"
        },
        {
          "internalType": "string",
          "name": "barcodeId",
          "type": "string"
        },
        {
          "internalType": "uint256",
          "name": "currentTime_",
          "type": "uint256"
        }
      ],
      "name": "sellItem",
      "outputs": [],
      "stateMutability": "nonpayable",
      "type": "function"
    }
  ],
  "bytecode": "0x60806040523480156200001157600080fd5b50604051620068913803806200689183398181016040528101906200003791906200059d565b60006040518060800160405280600060038111156200005b576200005a62000622565b5b81526020013373ffffffffffffffffffffffffffffffffffffffff1681526020018481526020018381525090506200009981620000a260201b60201c565b50505062000b7b565b600073ffffffffffffffffffffffffffffffffffffffff16816020015173ffffffffffffffffffffffffffffffffffffffff160362000118576040517f08c379a00000000000000000000000000000000000000000000000000000000081526004016200010f90620006b2565b60405180910390fd5b6200013281600001518260200151620002b160201b60201c565b1562000175576040517f08c379a00000000000000000000000000000000000000000000000000000000081526004016200016c906200074a565b60405180910390fd5b80600080836020015173ffffffffffffffffffffffffffffffffffffffff1673ffffffffffffffffffffffffffffffffffffffff16815260200190815260200160002060008201518160000160006101000a81548160ff02191690836003811115620001e657620001e562000622565b5b021790555060208201518160000160016101000a81548173ffffffffffffffffffffffffffffffffffffffff021916908373ffffffffffffffffffffffffffffffffffffffff1602179055506040820151816001019081620002499190620009b7565b506060820151816002019081620002619190620009b7565b509050507f35488f4c07069e6df6c089bc56476ef1daf1a424850ca489535b00cf818f0fe3816040015182606001518360000151604051620002a69392919062000b30565b60405180910390a150565b60008073ffffffffffffffffffffffffffffffffffffffff168273ffffffffffffffffffffffffffffffffffffffff1603620002ec57600080fd5b600073ffffffffffffffffffffffffffffffffffffffff166000808473ffffffffffffffffffffffffffffffffffffffff1673ffffffffffffffffffffffffffffffffffffffff16815260200190815260200160002060000160019054906101000a900473ffffffffffffffffffffffffffffffffffffffff1673ffffffffffffffffffffffffffffffffffffffff16141580156200040257508260038111156200039c576200039b62000622565b5b6000808473ffffffffffffffffffffffffffffffffffffffff1673ffffffffffffffffffffffffffffffffffffffff16815260200190815260200160002060000160009054906101000a900460ff1660038111156200040057620003ff62000622565b5b145b905092915050565b6000604051905090565b600080fd5b600080fd5b600080fd5b600080fd5b6000601f19601f8301169050919050565b7f4e487b7100000000000000000000000000000000000000000000000000000000600052604160045260246000fd5b620004738262000428565b810181811067ffffffffffffffff8211171562000495576200049462000439565b5b80604052505050565b6000620004aa6200040a565b9050620004b8828262000468565b919050565b600067ffffffffffffffff821115620004db57620004da62000439565b5b620004e68262000428565b9050602081019050919050565b60005b8381101562000513578082015181840152602081019050620004f6565b60008484015250505050565b6000620005366200053084620004bd565b6200049e565b90508281526020810184848401111562000555576200055462000423565b5b62000562848285620004f3565b509392505050565b600082601f8301126200058257620005816200041e565b5b8151620005948482602086016200051f565b91505092915050565b60008060408385031215620005b757620005b662000414565b5b600083015167ffffffffffffffff811115620005d857620005d762000419565b5b620005e6858286016200056a565b925050602083015167ffffffffffffffff8111156200060a576200060962000419565b5b62000618858286016200056a565b9150509250929050565b7f4e487b7100000000000000000000000000000000000000000000000000000000600052602160045260246000fd5b600082825260208201905092915050565b7f4163636f756e742073686f756c64206e6f74206265206163636f756e74203000600082015250565b60006200069a601f8362000651565b9150620006a78262000662565b602082019050919050565b60006020820190508181036000830152620006cd816200068b565b9050919050565b7f63616e6e6f7420686176652073616d65206163636f756e74207769746820746860008201527f652073616d6520726f6c65000000000000000000000000000000000000000000602082015250565b600062000732602b8362000651565b91506200073f82620006d4565b604082019050919050565b60006020820190508181036000830152620007658162000723565b9050919050565b600081519050919050565b7f4e487b7100000000000000000000000000000000000000000000000000000000600052602260045260246000fd5b60006002820490506001821680620007bf57607f821691505b602082108103620007d557620007d462000777565b5b50919050565b60008190508160005260206000209050919050565b60006020601f8301049050919050565b600082821b905092915050565b6000600883026200083f7fffffffffffffffffffffffffffffffffffffffffffffffffffffffffffffffff8262000800565b6200084b868362000800565b95508019841693508086168417925050509392505050565b6000819050919050565b6000819050919050565b600062000898620008926200088c8462000863565b6200086d565b62000863565b9050919050565b6000819050919050565b620008b48362000877565b620008cc620008c3826200089f565b8484546200080d565b825550505050565b600090565b620008e3620008d4565b620008f0818484620008a9565b505050565b5b8181101562000918576200090c600082620008d9565b600181019050620008f6565b5050565b601f82111562000967576200093181620007db565b6200093c84620007f0565b810160208510156200094c578190505b620009646200095b85620007f0565b830182620008f5565b50505b505050565b600082821c905092915050565b60006200098c600019846008026200096c565b1980831691505092915050565b6000620009a7838362000979565b9150826002028217905092915050565b620009c2826200076c565b67ffffffffffffffff811115620009de57620009dd62000439565b5b620009ea8254620007a6565b620009f78282856200091c565b600060209050601f83116001811462000a2f576000841562000a1a578287015190505b62000a26858262000999565b86555062000a96565b601f19841662000a3f86620007db565b60005b8281101562000a695784890151825560018201915060208501945060208101905062000a42565b8683101562000a89578489015162000a85601f89168262000979565b8355505b6001600288020188555050505b505050505050565b600062000aab826200076c565b62000ab7818562000651565b935062000ac9818560208601620004f3565b62000ad48162000428565b840191505092915050565b6004811062000af35762000af262000622565b5b50565b600081905062000b068262000adf565b919050565b600062000b188262000af6565b9050919050565b62000b2a8162000b0b565b82525050565b6000606082019050818103600083015262000b4c818662000a9e565b9050818103602083015262000b62818562000a9e565b905062000b73604083018462000b1f565b949350505050565b615d068062000b8b6000396000f3fe608060405234801561001057600080fd5b50600436106100935760003560e01c8063431bbb7e11610066578063431bbb7e146101335780634ba1d6aa14610151578063bcad6f521461016f578063c5fb207d1461018b578063f8f3b242146101a957610093565b806306b7dd711461009857806329ed922e146100b45780632aceb534146100e55780633f67c6f014610115575b600080fd5b6100b260048036038101906100ad91906144d9565b6101c5565b005b6100ce60048036038101906100c99190614522565b6101d2565b6040516100dc9291906149ce565b60405180910390f35b6100ff60048036038101906100fa9190614a05565b6101f4565b60405161010c9190614ae4565b60405180910390f35b61011d61020c565b60405161012a9190614c32565b60405180910390f35b61013b61021c565b6040516101489190614ae4565b60405180910390f35b610159610232565b6040516101669190614e3d565b60405180910390f35b61018960048036038101906101849190614e8b565b61070f565b005b61019361096b565b6040516101a09190614e3d565b60405180910390f35b6101c360048036038101906101be91906151fb565b61097a565b005b6101cf8133610b7c565b50565b6101da614002565b6101e261408d565b6101eb836110cd565b91509150915091565b6101fc6140c7565b610205826117d7565b9050919050565b60606102173361186d565b905090565b6102246140c7565b61022d336117d7565b905090565b60606004805480602002602001604051908101604052809291908181526020016000905b8282101561070657838290600052602060002090600c02016040518061018001604052908160008201805461028a90615286565b80601f01602080910402602001604051908101604052809291908181526020018280546102b690615286565b80156103035780601f106102d857610100808354040283529160200191610303565b820191906000526020600020905b8154815290600101906020018083116102e657829003601f168201915b5050505050815260200160018201805461031c90615286565b80601f016020809104026020016040519081016040528092919081815260200182805461034890615286565b80156103955780601f1061036a57610100808354040283529160200191610395565b820191906000526020600020905b81548152906001019060200180831161037857829003601f168201915b505050505081526020016002820160009054906101000a900473ffffffffffffffffffffffffffffffffffffffff1673ffffffffffffffffffffffffffffffffffffffff1673ffffffffffffffffffffffffffffffffffffffff16815260200160038201548152602001600482015481526020016005820160009054906101000a900460ff161515151581526020016006820154815260200160078201805461043d90615286565b80601f016020809104026020016040519081016040528092919081815260200182805461046990615286565b80156104b65780601f1061048b576101008083540402835291602001916104b6565b820191906000526020600020905b81548152906001019060200180831161049957829003601f168201915b505050505081526020016008820180546104cf90615286565b80601f01602080910402602001604051908101604052809291908181526020018280546104fb90615286565b80156105485780601f1061051d57610100808354040283529160200191610548565b820191906000526020600020905b81548152906001019060200180831161052b57829003601f168201915b505050505081526020016009820160009054906101000a900460ff1660048111156105765761057561462d565b5b60048111156105885761058761462d565b5b8152602001600a8201805461059c90615286565b80601f01602080910402602001604051908101604052809291908181526020018280546105c890615286565b80156106155780601f106105ea57610100808354040283529160200191610615565b820191906000526020600020905b8154815290600101906020018083116105f857829003601f168201915b50505050508152602001600b8201805480602002602001604051908101604052809291908181526020016000905b828210156106ef57838290600052602060002001805461066290615286565b80601f016020809104026020016040519081016040528092919081815260200182805461068e90615286565b80156106db5780601f106106b0576101008083540402835291602001916106db565b820191906000526020600020905b8154815290600101906020018083116106be57829003601f168201915b505050505081526020019060010190610643565b505050508152505081526020019060010190610256565b50505050905090565b610718836120bb565b610757576040517f08c379a000000000000000000000000000000000000000000000000000000000815260040161074e90615314565b60405180910390fd5b60008060008573ffffffffffffffffffffffffffffffffffffffff1673ffffffffffffffffffffffffffffffffffffffff1681526020019081526020016000206040518060800160405290816000820160009054906101000a900460ff1660038111156107c7576107c661462d565b5b60038111156107d9576107d861462d565b5b81526020016000820160019054906101000a900473ffffffffffffffffffffffffffffffffffffffff1673ffffffffffffffffffffffffffffffffffffffff1673ffffffffffffffffffffffffffffffffffffffff16815260200160018201805461084390615286565b80601f016020809104026020016040519081016040528092919081815260200182805461086f90615286565b80156108bc5780601f10610891576101008083540402835291602001916108bc565b820191906000526020600020905b81548152906001019060200180831161089f57829003601f168201915b505050505081526020016002820180546108d590615286565b80601f016020809104026020016040519081016040528092919081815260200182805461090190615286565b801561094e5780601f106109235761010080835404028352916020019161094e565b820191906000526020600020905b81548152906001019060200180831161093157829003601f168201915b50505050508152505090506109658484838561219f565b50505050565b6060610975612a16565b905090565b600073ffffffffffffffffffffffffffffffffffffffff163373ffffffffffffffffffffffffffffffffffffffff16036109e9576040517f08c379a00000000000000000000000000000000000000000000000000000000081526004016109e090615380565b60405180910390fd5b600073ffffffffffffffffffffffffffffffffffffffff166000803373ffffffffffffffffffffffffffffffffffffffff1673ffffffffffffffffffffffffffffffffffffffff16815260200190815260200160002060000160019054906101000a900473ffffffffffffffffffffffffffffffffffffffff1673ffffffffffffffffffffffffffffffffffffffff1603610ab9576040517f08c379a0000000000000000000000000000000000000000000000000000000008152600401610ab0906153ec565b60405180910390fd5b60006003811115610acd57610acc61462d565b5b6000803373ffffffffffffffffffffffffffffffffffffffff1673ffffffffffffffffffffffffffffffffffffffff16815260200190815260200160002060000160009054906101000a900460ff166003811115610b2e57610b2d61462d565b5b14610b6e576040517f08c379a0000000000000000000000000000000000000000000000000000000008152600401610b6590615458565b60405180910390fd5b610b788282613085565b5050565b600073ffffffffffffffffffffffffffffffffffffffff168173ffffffffffffffffffffffffffffffffffffffff1603610bb557600080fd5b600073ffffffffffffffffffffffffffffffffffffffff16826020015173ffffffffffffffffffffffffffffffffffffffff1603610bf257600080fd5b60006003811115610c0657610c0561462d565b5b610c0f82613615565b600001516003811115610c2557610c2461462d565b5b148015610c5a575060016003811115610c4157610c4061462d565b5b82600001516003811115610c5857610c5761462d565b5b145b15610d7b57600160008273ffffffffffffffffffffffffffffffffffffffff1673ffffffffffffffffffffffffffffffffffffffff16815260200190815260200160002082908060018154018082558091505060019003906000526020600020906003020160009091909190915060008201518160000160006101000a81548160ff02191690836003811115610cf357610cf261462d565b5b021790555060208201518160000160016101000a81548173ffffffffffffffffffffffffffffffffffffffff021916908373ffffffffffffffffffffffffffffffffffffffff1602179055506040820151816001019081610d549190615624565b506060820151816002019081610d6a9190615624565b505050610d768261385b565b6110c9565b60016003811115610d8f57610d8e61462d565b5b610d9882613615565b600001516003811115610dae57610dad61462d565b5b148015610de3575060026003811115610dca57610dc961462d565b5b82600001516003811115610de157610de061462d565b5b145b15610f0457600260008273ffffffffffffffffffffffffffffffffffffffff1673ffffffffffffffffffffffffffffffffffffffff16815260200190815260200160002082908060018154018082558091505060019003906000526020600020906003020160009091909190915060008201518160000160006101000a81548160ff02191690836003811115610e7c57610e7b61462d565b5b021790555060208201518160000160016101000a81548173ffffffffffffffffffffffffffffffffffffffff021916908373ffffffffffffffffffffffffffffffffffffffff1602179055506040820151816001019081610edd9190615624565b506060820151816002019081610ef39190615624565b505050610eff8261385b565b6110c8565b60026003811115610f1857610f1761462d565b5b610f2182613615565b600001516003811115610f3757610f3661462d565b5b148015610f6b5750600380811115610f5257610f5161462d565b5b82600001516003811115610f6957610f6861462d565b5b145b1561108c57600360008273ffffffffffffffffffffffffffffffffffffffff1673ffffffffffffffffffffffffffffffffffffffff16815260200190815260200160002082908060018154018082558091505060019003906000526020600020906003020160009091909190915060008201518160000160006101000a81548160ff021916908360038111156110045761100361462d565b5b021790555060208201518160000160016101000a81548173ffffffffffffffffffffffffffffffffffffffff021916908373ffffffffffffffffffffffffffffffffffffffff16021790555060408201518160010190816110659190615624565b50606082015181600201908161107b9190615624565b5050506110878261385b565b6110c7565b6040517f08c379a00000000000000000000000000000000000000000000000000000000081526004016110be90615742565b60405180910390fd5b5b5b5050565b6110d5614002565b6110dd61408d565b6005836040516110ed919061579e565b908152602001604051809103902060078460405161110b919061579e565b9081526020016040518091039020816040518061018001604052908160008201805461113690615286565b80601f016020809104026020016040519081016040528092919081815260200182805461116290615286565b80156111af5780601f10611184576101008083540402835291602001916111af565b820191906000526020600020905b81548152906001019060200180831161119257829003601f168201915b505050505081526020016001820180546111c890615286565b80601f01602080910402602001604051908101604052809291908181526020018280546111f490615286565b80156112415780601f1061121657610100808354040283529160200191611241565b820191906000526020600020905b81548152906001019060200180831161122457829003601f168201915b505050505081526020016002820160009054906101000a900473ffffffffffffffffffffffffffffffffffffffff1673ffffffffffffffffffffffffffffffffffffffff1673ffffffffffffffffffffffffffffffffffffffff16815260200160038201548152602001600482015481526020016005820160009054906101000a900460ff16151515158152602001600682015481526020016007820180546112e990615286565b80601f016020809104026020016040519081016040528092919081815260200182805461131590615286565b80156113625780601f1061133757610100808354040283529160200191611362565b820191906000526020600020905b81548152906001019060200180831161134557829003601f168201915b5050505050815260200160088201805461137b90615286565b80601f01602080910402602001604051908101604052809291908181526020018280546113a790615286565b80156113f45780601f106113c9576101008083540402835291602001916113f4565b820191906000526020600020905b8154815290600101906020018083116113d757829003601f168201915b505050505081526020016009820160009054906101000a900460ff1660048111156114225761142161462d565b5b60048111156114345761143361462d565b5b8152602001600a8201805461144890615286565b80601f016020809104026020016040519081016040528092919081815260200182805461147490615286565b80156114c15780601f10611496576101008083540402835291602001916114c1565b820191906000526020600020905b8154815290600101906020018083116114a457829003601f168201915b50505050508152602001600b8201805480602002602001604051908101604052809291908181526020016000905b8282101561159b57838290600052602060002001805461150e90615286565b80601f016020809104026020016040519081016040528092919081815260200182805461153a90615286565b80156115875780601f1061155c57610100808354040283529160200191611587565b820191906000526020600020905b81548152906001019060200180831161156a57829003601f168201915b5050505050815260200190600101906114ef565b5050505081525050915080604051806080016040529081600082016040518060400160405290816000820160009054906101000a900473ffffffffffffffffffffffffffffffffffffffff1673ffffffffffffffffffffffffffffffffffffffff1673ffffffffffffffffffffffffffffffffffffffff1681526020016001820154815250508152602001600282016040518060400160405290816000820160009054906101000a900473ffffffffffffffffffffffffffffffffffffffff1673ffffffffffffffffffffffffffffffffffffffff1673ffffffffffffffffffffffffffffffffffffffff1681526020016001820154815250508152602001600482016040518060400160405290816000820160009054906101000a900473ffffffffffffffffffffffffffffffffffffffff1673ffffffffffffffffffffffffffffffffffffffff1673ffffffffffffffffffffffffffffffffffffffff168152602001600182015481525050815260200160068201805480602002602001604051908101604052809291908181526020016000905b828210156117c457838290600052602060002090600202016040518060400160405290816000820160009054906101000a900473ffffffffffffffffffffffffffffffffffffffff1673ffffffffffffffffffffffffffffffffffffffff1673ffffffffffffffffffffffffffffffffffffffff16815260200160018201548152505081526020019060010190611732565b5050505081525050905091509150915091565b6117df6140c7565b600073ffffffffffffffffffffffffffffffffffffffff168273ffffffffffffffffffffffffffffffffffffffff160361181857600080fd5b600073ffffffffffffffffffffffffffffffffffffffff1661183983613615565b6020015173ffffffffffffffffffffffffffffffffffffffff160361185d57600080fd5b61186682613615565b9050919050565b6060600073ffffffffffffffffffffffffffffffffffffffff168273ffffffffffffffffffffffffffffffffffffffff16036118de576040517f08c379a00000000000000000000000000000000000000000000000000000000081526004016118d590615801565b60405180910390fd5b600060038111156118f2576118f161462d565b5b6118fb83613615565b6000015160038111156119115761191061462d565b5b03611b6757600160008373ffffffffffffffffffffffffffffffffffffffff1673ffffffffffffffffffffffffffffffffffffffff168152602001908152602001600020805480602002602001604051908101604052809291908181526020016000905b82821015611b5c57838290600052602060002090600302016040518060800160405290816000820160009054906101000a900460ff1660038111156119bd576119bc61462d565b5b60038111156119cf576119ce61462d565b5b81526020016000820160019054906101000a900473ffffffffffffffffffffffffffffffffffffffff1673ffffffffffffffffffffffffffffffffffffffff1673ffffffffffffffffffffffffffffffffffffffff168152602001600182018054611a3990615286565b80601f0160208091040260200160405190810160405280929190818152602001828054611a6590615286565b8015611ab25780601f10611a8757610100808354040283529160200191611ab2565b820191906000526020600020905b815481529060010190602001808311611a9557829003601f168201915b50505050508152602001600282018054611acb90615286565b80601f0160208091040260200160405190810160405280929190818152602001828054611af790615286565b8015611b445780601f10611b1957610100808354040283529160200191611b44565b820191906000526020600020905b815481529060010190602001808311611b2757829003601f168201915b50505050508152505081526020019060010190611975565b5050505090506120b6565b60016003811115611b7b57611b7a61462d565b5b611b8483613615565b600001516003811115611b9a57611b9961462d565b5b03611df057600260008373ffffffffffffffffffffffffffffffffffffffff1673ffffffffffffffffffffffffffffffffffffffff168152602001908152602001600020805480602002602001604051908101604052809291908181526020016000905b82821015611de557838290600052602060002090600302016040518060800160405290816000820160009054906101000a900460ff166003811115611c4657611c4561462d565b5b6003811115611c5857611c5761462d565b5b81526020016000820160019054906101000a900473ffffffffffffffffffffffffffffffffffffffff1673ffffffffffffffffffffffffffffffffffffffff1673ffffffffffffffffffffffffffffffffffffffff168152602001600182018054611cc290615286565b80601f0160208091040260200160405190810160405280929190818152602001828054611cee90615286565b8015611d3b5780601f10611d1057610100808354040283529160200191611d3b565b820191906000526020600020905b815481529060010190602001808311611d1e57829003601f168201915b50505050508152602001600282018054611d5490615286565b80601f0160208091040260200160405190810160405280929190818152602001828054611d8090615286565b8015611dcd5780601f10611da257610100808354040283529160200191611dcd565b820191906000526020600020905b815481529060010190602001808311611db057829003601f168201915b50505050508152505081526020019060010190611bfe565b5050505090506120b5565b60026003811115611e0457611e0361462d565b5b611e0d83613615565b600001516003811115611e2357611e2261462d565b5b0361207957600360008373ffffffffffffffffffffffffffffffffffffffff1673ffffffffffffffffffffffffffffffffffffffff168152602001908152602001600020805480602002602001604051908101604052809291908181526020016000905b8282101561206e57838290600052602060002090600302016040518060800160405290816000820160009054906101000a900460ff166003811115611ecf57611ece61462d565b5b6003811115611ee157611ee061462d565b5b81526020016000820160019054906101000a900473ffffffffffffffffffffffffffffffffffffffff1673ffffffffffffffffffffffffffffffffffffffff1673ffffffffffffffffffffffffffffffffffffffff168152602001600182018054611f4b90615286565b80601f0160208091040260200160405190810160405280929190818152602001828054611f7790615286565b8015611fc45780601f10611f9957610100808354040283529160200191611fc4565b820191906000526020600020905b815481529060010190602001808311611fa757829003601f168201915b50505050508152602001600282018054611fdd90615286565b80601f016020809104026020016040519081016040528092919081815260200182805461200990615286565b80156120565780601f1061202b57610100808354040283529160200191612056565b820191906000526020600020905b81548152906001019060200180831161203957829003601f168201915b50505050508152505081526020019060010190611e87565b5050505090506120b4565b6040517f08c379a00000000000000000000000000000000000000000000000000000000081526004016120ab90615742565b60405180910390fd5b5b5b919050565b600080600073ffffffffffffffffffffffffffffffffffffffff168373ffffffffffffffffffffffffffffffffffffffff16036120fb578091505061219a565b600073ffffffffffffffffffffffffffffffffffffffff166000808573ffffffffffffffffffffffffffffffffffffffff1673ffffffffffffffffffffffffffffffffffffffff16815260200190815260200160002060000160019054906101000a900473ffffffffffffffffffffffffffffffffffffffff1673ffffffffffffffffffffffffffffffffffffffff161461219557600190505b809150505b919050565b826122626005826040516121b3919061579e565b908152602001604051809103902060070180546121cf90615286565b80601f01602080910402602001604051908101604052809291908181526020018280546121fb90615286565b80156122485780601f1061221d57610100808354040283529160200191612248565b820191906000526020600020905b81548152906001019060200180831161222b57829003601f168201915b505050505060405180602001604052806000815250613a53565b1561226c57600080fd5b600060058560405161227e919061579e565b9081526020016040518091039020604051806101800160405290816000820180546122a890615286565b80601f01602080910402602001604051908101604052809291908181526020018280546122d490615286565b80156123215780601f106122f657610100808354040283529160200191612321565b820191906000526020600020905b81548152906001019060200180831161230457829003601f168201915b5050505050815260200160018201805461233a90615286565b80601f016020809104026020016040519081016040528092919081815260200182805461236690615286565b80156123b35780601f10612388576101008083540402835291602001916123b3565b820191906000526020600020905b81548152906001019060200180831161239657829003601f168201915b505050505081526020016002820160009054906101000a900473ffffffffffffffffffffffffffffffffffffffff1673ffffffffffffffffffffffffffffffffffffffff1673ffffffffffffffffffffffffffffffffffffffff16815260200160038201548152602001600482015481526020016005820160009054906101000a900460ff161515151581526020016006820154815260200160078201805461245b90615286565b80601f016020809104026020016040519081016040528092919081815260200182805461248790615286565b80156124d45780601f106124a9576101008083540402835291602001916124d4565b820191906000526020600020905b8154815290600101906020018083116124b757829003601f168201915b505050505081526020016008820180546124ed90615286565b80601f016020809104026020016040519081016040528092919081815260200182805461251990615286565b80156125665780601f1061253b57610100808354040283529160200191612566565b820191906000526020600020905b81548152906001019060200180831161254957829003601f168201915b505050505081526020016009820160009054906101000a900460ff1660048111156125945761259361462d565b5b60048111156125a6576125a561462d565b5b8152602001600a820180546125ba90615286565b80601f01602080910402602001604051908101604052809291908181526020018280546125e690615286565b80156126335780601f1061260857610100808354040283529160200191612633565b820191906000526020600020905b81548152906001019060200180831161261657829003601f168201915b50505050508152602001600b8201805480602002602001604051908101604052809291908181526020016000905b8282101561270d57838290600052602060002001805461268090615286565b80601f01602080910402602001604051908101604052809291908181526020018280546126ac90615286565b80156126f95780601f106126ce576101008083540402835291602001916126f9565b820191906000526020600020905b8154815290600101906020018083116126dc57829003601f168201915b505050505081526020019060010190612661565b5050505081525050905060006040518060400160405280866020015173ffffffffffffffffffffffffffffffffffffffff1681526020018581525090506001600381111561275e5761275d61462d565b5b856000015160038111156127755761277461462d565b5b036127f5578060078760405161278b919061579e565b908152602001604051809103902060020160008201518160000160006101000a81548173ffffffffffffffffffffffffffffffffffffffff021916908373ffffffffffffffffffffffffffffffffffffffff160217905550602082015181600101559050506129af565b600260038111156128095761280861462d565b5b856000015160038111156128205761281f61462d565b5b036128a05780600787604051612836919061579e565b908152602001604051809103902060040160008201518160000160006101000a81548173ffffffffffffffffffffffffffffffffffffffff021916908373ffffffffffffffffffffffffffffffffffffffff160217905550602082015181600101559050506129ae565b6003808111156128b3576128b261462d565b5b856000015160038111156128ca576128c961462d565b5b03612972576007866040516128df919061579e565b908152602001604051809103902060060181908060018154018082558091505060019003906000526020600020906002020160009091909190915060008201518160000160006101000a81548173ffffffffffffffffffffffffffffffffffffffff021916908373ffffffffffffffffffffffffffffffffffffffff1602179055506020820151816001015550506129ad565b6040517f08c379a00000000000000000000000000000000000000000000000000000000081526004016129a490615742565b60405180910390fd5b5b5b6129ba338888613aac565b7f3e0c714bf3c210532b7ee4691c21f5b553c934dbc77829ba676c1b5b34d42ed5826000015183602001518460e0015188604001518960600151604051612a0595949392919061585a565b60405180910390a150505050505050565b60606000600660003373ffffffffffffffffffffffffffffffffffffffff1673ffffffffffffffffffffffffffffffffffffffff168152602001908152602001600020805480602002602001604051908101604052809291908181526020016000905b82821015612b25578382906000526020600020018054612a9890615286565b80601f0160208091040260200160405190810160405280929190818152602001828054612ac490615286565b8015612b115780601f10612ae657610100808354040283529160200191612b11565b820191906000526020600020905b815481529060010190602001808311612af457829003601f168201915b505050505081526020019060010190612a79565b5050505090506000815167ffffffffffffffff811115612b4857612b4761426c565b5b604051908082528060200260200182016040528015612b8157816020015b612b6e614002565b815260200190600190039081612b665790505b50905060005b825181101561307c576005838281518110612ba557612ba46158d0565b5b6020026020010151604051612bba919061579e565b908152602001604051809103902060405180610180016040529081600082018054612be490615286565b80601f0160208091040260200160405190810160405280929190818152602001828054612c1090615286565b8015612c5d5780601f10612c3257610100808354040283529160200191612c5d565b820191906000526020600020905b815481529060010190602001808311612c4057829003601f168201915b50505050508152602001600182018054612c7690615286565b80601f0160208091040260200160405190810160405280929190818152602001828054612ca290615286565b8015612cef5780601f10612cc457610100808354040283529160200191612cef565b820191906000526020600020905b815481529060010190602001808311612cd257829003601f168201915b505050505081526020016002820160009054906101000a900473ffffffffffffffffffffffffffffffffffffffff1673ffffffffffffffffffffffffffffffffffffffff1673ffffffffffffffffffffffffffffffffffffffff16815260200160038201548152602001600482015481526020016005820160009054906101000a900460ff1615151515815260200160068201548152602001600782018054612d9790615286565b80601f0160208091040260200160405190810160405280929190818152602001828054612dc390615286565b8015612e105780601f10612de557610100808354040283529160200191612e10565b820191906000526020600020905b815481529060010190602001808311612df357829003601f168201915b50505050508152602001600882018054612e2990615286565b80601f0160208091040260200160405190810160405280929190818152602001828054612e5590615286565b8015612ea25780601f10612e7757610100808354040283529160200191612ea2565b820191906000526020600020905b815481529060010190602001808311612e8557829003601f168201915b505050505081526020016009820160009054906101000a900460ff166004811115612ed057612ecf61462d565b5b6004811115612ee257612ee161462d565b5b8152602001600a82018054612ef690615286565b80601f0160208091040260200160405190810160405280929190818152602001828054612f2290615286565b8015612f6f5780601f10612f4457610100808354040283529160200191612f6f565b820191906000526020600020905b815481529060010190602001808311612f5257829003601f168201915b50505050508152602001600b8201805480602002602001604051908101604052809291908181526020016000905b82821015613049578382906000526020600020018054612fbc90615286565b80601f0160208091040260200160405190810160405280929190818152602001828054612fe890615286565b80156130355780601f1061300a57610100808354040283529160200191613035565b820191906000526020600020905b81548152906001019060200180831161301857829003601f168201915b505050505081526020019060010190612f9d565b5050505081525050828281518110613064576130636158d0565b5b60200260200101819052508080600101915050612b87565b50809250505090565b8160e0015161314c60058260405161309d919061579e565b908152602001604051809103902060070180546130b990615286565b80601f01602080910402602001604051908101604052809291908181526020018280546130e590615286565b80156131325780601f1061310757610100808354040283529160200191613132565b820191906000526020600020905b81548152906001019060200180831161311557829003601f168201915b505050505060405180602001604052806000815250613a53565b61315557600080fd5b3373ffffffffffffffffffffffffffffffffffffffff16836040015173ffffffffffffffffffffffffffffffffffffffff16146131c7576040517f08c379a00000000000000000000000000000000000000000000000000000000081526004016131be90615458565b60405180910390fd5b60048390806001815401808255809150506001900390600052602060002090600c020160009091909190915060008201518160000190816132089190615624565b50602082015181600101908161321e9190615624565b5060408201518160020160006101000a81548173ffffffffffffffffffffffffffffffffffffffff021916908373ffffffffffffffffffffffffffffffffffffffff160217905550606082015181600301556080820151816004015560a08201518160050160006101000a81548160ff02191690831515021790555060c0820151816006015560e08201518160070190816132b99190615624565b506101008201518160080190816132d09190615624565b506101208201518160090160006101000a81548160ff021916908360048111156132fd576132fc61462d565b5b021790555061014082015181600a0190816133189190615624565b5061016082015181600b019080519060200190613336929190614117565b5050508260058460e0015160405161334e919061579e565b908152602001604051809103902060008201518160000190816133719190615624565b5060208201518160010190816133879190615624565b5060408201518160020160006101000a81548173ffffffffffffffffffffffffffffffffffffffff021916908373ffffffffffffffffffffffffffffffffffffffff160217905550606082015181600301556080820151816004015560a08201518160050160006101000a81548160ff02191690831515021790555060c0820151816006015560e08201518160070190816134229190615624565b506101008201518160080190816134399190615624565b506101208201518160090160006101000a81548160ff021916908360048111156134665761346561462d565b5b021790555061014082015181600a0190816134819190615624565b5061016082015181600b01908051906020019061349f929190614117565b5090505060405180604001604052803373ffffffffffffffffffffffffffffffffffffffff1681526020018381525060078460e001516040516134e2919061579e565b908152602001604051809103902060000160008201518160000160006101000a81548173ffffffffffffffffffffffffffffffffffffffff021916908373ffffffffffffffffffffffffffffffffffffffff16021790555060208201518160010155905050600660003373ffffffffffffffffffffffffffffffffffffffff1673ffffffffffffffffffffffffffffffffffffffff1681526020019081526020016000208360e001519080600181540180825580915050600190039060005260206000200160009091909190915090816135bc9190615624565b507fc0e7c5cb71ddf9034382f73f061f2a18fcc3eea6d6f643244056f7689ef8f6e2836000015184602001518560e001518660600151876080015160405161360895949392919061590e565b60405180910390a1505050565b61361d6140c7565b600073ffffffffffffffffffffffffffffffffffffffff168273ffffffffffffffffffffffffffffffffffffffff160361365657600080fd5b6000808373ffffffffffffffffffffffffffffffffffffffff1673ffffffffffffffffffffffffffffffffffffffff1681526020019081526020016000206040518060800160405290816000820160009054906101000a900460ff1660038111156136c4576136c361462d565b5b60038111156136d6576136d561462d565b5b81526020016000820160019054906101000a900473ffffffffffffffffffffffffffffffffffffffff1673ffffffffffffffffffffffffffffffffffffffff1673ffffffffffffffffffffffffffffffffffffffff16815260200160018201805461374090615286565b80601f016020809104026020016040519081016040528092919081815260200182805461376c90615286565b80156137b95780601f1061378e576101008083540402835291602001916137b9565b820191906000526020600020905b81548152906001019060200180831161379c57829003601f168201915b505050505081526020016002820180546137d290615286565b80601f01602080910402602001604051908101604052809291908181526020018280546137fe90615286565b801561384b5780601f106138205761010080835404028352916020019161384b565b820191906000526020600020905b81548152906001019060200180831161382e57829003601f168201915b5050505050815250509050919050565b600073ffffffffffffffffffffffffffffffffffffffff16816020015173ffffffffffffffffffffffffffffffffffffffff16036138ce576040517f08c379a00000000000000000000000000000000000000000000000000000000081526004016138c5906159c2565b60405180910390fd5b6138e081600001518260200151613eb1565b15613920576040517f08c379a000000000000000000000000000000000000000000000000000000000815260040161391790615a54565b60405180910390fd5b80600080836020015173ffffffffffffffffffffffffffffffffffffffff1673ffffffffffffffffffffffffffffffffffffffff16815260200190815260200160002060008201518160000160006101000a81548160ff0219169083600381111561398e5761398d61462d565b5b021790555060208201518160000160016101000a81548173ffffffffffffffffffffffffffffffffffffffff021916908373ffffffffffffffffffffffffffffffffffffffff16021790555060408201518160010190816139ef9190615624565b506060820151816002019081613a059190615624565b509050507f35488f4c07069e6df6c089bc56476ef1daf1a424850ca489535b00cf818f0fe3816040015182606001518360000151604051613a4893929190615a83565b60405180910390a150565b600081604051602001613a66919061579e565b6040516020818303038152906040528051906020012083604051602001613a8d919061579e565b6040516020818303038152906040528051906020012014905092915050565b600660008373ffffffffffffffffffffffffffffffffffffffff1673ffffffffffffffffffffffffffffffffffffffff16815260200190815260200160002081908060018154018082558091505060019003906000526020600020016000909190919091509081613b1d9190615624565b506000600660008573ffffffffffffffffffffffffffffffffffffffff1673ffffffffffffffffffffffffffffffffffffffff168152602001908152602001600020805480602002602001604051908101604052809291908181526020016000905b82821015613c2b578382906000526020600020018054613b9e90615286565b80601f0160208091040260200160405190810160405280929190818152602001828054613bca90615286565b8015613c175780601f10613bec57610100808354040283529160200191613c17565b820191906000526020600020905b815481529060010190602001808311613bfa57829003601f168201915b505050505081526020019060010190613b7f565b505050509050600060018251613c419190615af7565b905060005b8251811015613c8d57613c73838281518110613c6557613c646158d0565b5b602002602001015185613a53565b15613c8057809150613c8d565b8080600101915050613c46565b5081518110613c9f57613c9e615b2b565b5b6001825103613cf857600660008673ffffffffffffffffffffffffffffffffffffffff1673ffffffffffffffffffffffffffffffffffffffff1681526020019081526020016000206000613cf39190614170565b613eaa565b600660008673ffffffffffffffffffffffffffffffffffffffff1673ffffffffffffffffffffffffffffffffffffffff16815260200190815260200160002060018351613d459190615b5a565b81548110613d5657613d556158d0565b5b90600052602060002001600660008773ffffffffffffffffffffffffffffffffffffffff1673ffffffffffffffffffffffffffffffffffffffff1681526020019081526020016000208281548110613db157613db06158d0565b5b906000526020600020019081613dc79190615bb9565b50600660008673ffffffffffffffffffffffffffffffffffffffff1673ffffffffffffffffffffffffffffffffffffffff16815260200190815260200160002060018351613e159190615b5a565b81548110613e2657613e256158d0565b5b906000526020600020016000613e3c9190614191565b600660008673ffffffffffffffffffffffffffffffffffffffff1673ffffffffffffffffffffffffffffffffffffffff168152602001908152602001600020805480613e8b57613e8a615ca1565b5b600190038181906000526020600020016000613ea79190614191565b90555b5050505050565b60008073ffffffffffffffffffffffffffffffffffffffff168273ffffffffffffffffffffffffffffffffffffffff1603613eeb57600080fd5b600073ffffffffffffffffffffffffffffffffffffffff166000808473ffffffffffffffffffffffffffffffffffffffff1673ffffffffffffffffffffffffffffffffffffffff16815260200190815260200160002060000160019054906101000a900473ffffffffffffffffffffffffffffffffffffffff1673ffffffffffffffffffffffffffffffffffffffff1614158015613ffa5750826003811115613f9757613f9661462d565b5b6000808473ffffffffffffffffffffffffffffffffffffffff1673ffffffffffffffffffffffffffffffffffffffff16815260200190815260200160002060000160009054906101000a900460ff166003811115613ff857613ff761462d565b5b145b905092915050565b6040518061018001604052806060815260200160608152602001600073ffffffffffffffffffffffffffffffffffffffff1681526020016000815260200160008152602001600015158152602001600081526020016060815260200160608152602001600060048111156140795761407861462d565b5b815260200160608152602001606081525090565b60405180608001604052806140a06141d1565b81526020016140ad6141d1565b81526020016140ba6141d1565b8152602001606081525090565b6040518060800160405280600060038111156140e6576140e561462d565b5b8152602001600073ffffffffffffffffffffffffffffffffffffffff16815260200160608152602001606081525090565b82805482825590600052602060002090810192821561415f579160200282015b8281111561415e57825182908161414e9190615624565b5091602001919060010190614137565b5b50905061416c9190614201565b5090565b508054600082559060005260206000209081019061418e9190614201565b50565b50805461419d90615286565b6000825580601f106141af57506141ce565b601f0160209004906000526020600020908101906141cd9190614225565b5b50565b6040518060400160405280600073ffffffffffffffffffffffffffffffffffffffff168152602001600081525090565b5b8082111561422157600081816142189190614191565b50600101614202565b5090565b5b8082111561423e576000816000905550600101614226565b5090565b6000604051905090565b600080fd5b600080fd5b600080fd5b6000601f19601f8301169050919050565b7f4e487b7100000000000000000000000000000000000000000000000000000000600052604160045260246000fd5b6142a48261425b565b810181811067ffffffffffffffff821117156142c3576142c261426c565b5b80604052505050565b60006142d6614242565b90506142e2828261429b565b919050565b600080fd5b600481106142f957600080fd5b50565b60008135905061430b816142ec565b92915050565b600073ffffffffffffffffffffffffffffffffffffffff82169050919050565b600061433c82614311565b9050919050565b61434c81614331565b811461435757600080fd5b50565b60008135905061436981614343565b92915050565b600080fd5b600080fd5b600067ffffffffffffffff8211156143945761439361426c565b5b61439d8261425b565b9050602081019050919050565b82818337600083830152505050565b60006143cc6143c784614379565b6142cc565b9050828152602081018484840111156143e8576143e7614374565b5b6143f38482856143aa565b509392505050565b600082601f8301126144105761440f61436f565b5b81356144208482602086016143b9565b91505092915050565b60006080828403121561443f5761443e614256565b5b61444960806142cc565b90506000614459848285016142fc565b600083015250602061446d8482850161435a565b602083015250604082013567ffffffffffffffff811115614491576144906142e7565b5b61449d848285016143fb565b604083015250606082013567ffffffffffffffff8111156144c1576144c06142e7565b5b6144cd848285016143fb565b60608301525092915050565b6000602082840312156144ef576144ee61424c565b5b600082013567ffffffffffffffff81111561450d5761450c614251565b5b61451984828501614429565b91505092915050565b6000602082840312156145385761453761424c565b5b600082013567ffffffffffffffff81111561455657614555614251565b5b614562848285016143fb565b91505092915050565b600081519050919050565b600082825260208201905092915050565b60005b838110156145a557808201518184015260208101905061458a565b60008484015250505050565b60006145bc8261456b565b6145c68185614576565b93506145d6818560208601614587565b6145df8161425b565b840191505092915050565b6145f381614331565b82525050565b6000819050919050565b61460c816145f9565b82525050565b60008115159050919050565b61462781614612565b82525050565b7f4e487b7100000000000000000000000000000000000000000000000000000000600052602160045260246000fd5b6005811061466d5761466c61462d565b5b50565b600081905061467e8261465c565b919050565b600061468e82614670565b9050919050565b61469e81614683565b82525050565b600081519050919050565b600082825260208201905092915050565b6000819050602082019050919050565b60006146dc83836145b1565b905092915050565b6000602082019050919050565b60006146fc826146a4565b61470681856146af565b935083602082028501614718856146c0565b8060005b85811015614754578484038952815161473585826146d0565b9450614740836146e4565b925060208a0199505060018101905061471c565b50829750879550505050505092915050565b600061018083016000830151848203600086015261478482826145b1565b9150506020830151848203602086015261479e82826145b1565b91505060408301516147b360408601826145ea565b5060608301516147c66060860182614603565b5060808301516147d96080860182614603565b5060a08301516147ec60a086018261461e565b5060c08301516147ff60c0860182614603565b5060e083015184820360e086015261481782826145b1565b91505061010083015184820361010086015261483382826145b1565b91505061012083015161484a610120860182614695565b5061014083015184820361014086015261486482826145b1565b91505061016083015184820361016086015261488082826146f1565b9150508091505092915050565b6040820160008201516148a360008501826145ea565b5060208201516148b66020850182614603565b50505050565b600081519050919050565b600082825260208201905092915050565b6000819050602082019050919050565b60006148f4838361488d565b60408301905092915050565b6000602082019050919050565b6000614918826148bc565b61492281856148c7565b935061492d836148d8565b8060005b8381101561495e57815161494588826148e8565b975061495083614900565b925050600181019050614931565b5085935050505092915050565b600060e083016000830151614983600086018261488d565b506020830151614996604086018261488d565b5060408301516149a9608086018261488d565b50606083015184820360c08601526149c1828261490d565b9150508091505092915050565b600060408201905081810360008301526149e88185614766565b905081810360208301526149fc818461496b565b90509392505050565b600060208284031215614a1b57614a1a61424c565b5b6000614a298482850161435a565b91505092915050565b60048110614a4357614a4261462d565b5b50565b6000819050614a5482614a32565b919050565b6000614a6482614a46565b9050919050565b614a7481614a59565b82525050565b6000608083016000830151614a926000860182614a6b565b506020830151614aa560208601826145ea565b5060408301518482036040860152614abd82826145b1565b91505060608301518482036060860152614ad782826145b1565b9150508091505092915050565b60006020820190508181036000830152614afe8184614a7a565b905092915050565b600081519050919050565b600082825260208201905092915050565b6000819050602082019050919050565b6000608083016000830151614b4a6000860182614a6b565b506020830151614b5d60208601826145ea565b5060408301518482036040860152614b7582826145b1565b91505060608301518482036060860152614b8f82826145b1565b9150508091505092915050565b6000614ba88383614b32565b905092915050565b6000602082019050919050565b6000614bc882614b06565b614bd28185614b11565b935083602082028501614be485614b22565b8060005b85811015614c205784840389528151614c018582614b9c565b9450614c0c83614bb0565b925060208a01995050600181019050614be8565b50829750879550505050505092915050565b60006020820190508181036000830152614c4c8184614bbd565b905092915050565b600081519050919050565b600082825260208201905092915050565b6000819050602082019050919050565b6000610180830160008301518482036000860152614c9e82826145b1565b91505060208301518482036020860152614cb882826145b1565b9150506040830151614ccd60408601826145ea565b506060830151614ce06060860182614603565b506080830151614cf36080860182614603565b5060a0830151614d0660a086018261461e565b5060c0830151614d1960c0860182614603565b5060e083015184820360e0860152614d3182826145b1565b915050610100830151848203610100860152614d4d82826145b1565b915050610120830151614d64610120860182614695565b50610140830151848203610140860152614d7e82826145b1565b915050610160830151848203610160860152614d9a82826146f1565b9150508091505092915050565b6000614db38383614c80565b905092915050565b6000602082019050919050565b6000614dd382614c54565b614ddd8185614c5f565b935083602082028501614def85614c70565b8060005b85811015614e2b5784840389528151614e0c8582614da7565b9450614e1783614dbb565b925060208a01995050600181019050614df3565b50829750879550505050505092915050565b60006020820190508181036000830152614e578184614dc8565b905092915050565b614e68816145f9565b8114614e7357600080fd5b50565b600081359050614e8581614e5f565b92915050565b600080600060608486031215614ea457614ea361424c565b5b6000614eb28682870161435a565b935050602084013567ffffffffffffffff811115614ed357614ed2614251565b5b614edf868287016143fb565b9250506040614ef086828701614e76565b9150509250925092565b614f0381614612565b8114614f0e57600080fd5b50565b600081359050614f2081614efa565b92915050565b60058110614f3357600080fd5b50565b600081359050614f4581614f26565b92915050565b600067ffffffffffffffff821115614f6657614f6561426c565b5b602082029050602081019050919050565b600080fd5b6000614f8f614f8a84614f4b565b6142cc565b90508083825260208201905060208402830185811115614fb257614fb1614f77565b5b835b81811015614ff957803567ffffffffffffffff811115614fd757614fd661436f565b5b808601614fe489826143fb565b85526020850194505050602081019050614fb4565b5050509392505050565b600082601f8301126150185761501761436f565b5b8135615028848260208601614f7c565b91505092915050565b6000610180828403121561504857615047614256565b5b6150536101806142cc565b9050600082013567ffffffffffffffff811115615073576150726142e7565b5b61507f848285016143fb565b600083015250602082013567ffffffffffffffff8111156150a3576150a26142e7565b5b6150af848285016143fb565b60208301525060406150c38482850161435a565b60408301525060606150d784828501614e76565b60608301525060806150eb84828501614e76565b60808301525060a06150ff84828501614f11565b60a08301525060c061511384828501614e76565b60c08301525060e082013567ffffffffffffffff811115615137576151366142e7565b5b615143848285016143fb565b60e08301525061010082013567ffffffffffffffff811115615168576151676142e7565b5b615174848285016143fb565b6101008301525061012061518a84828501614f36565b6101208301525061014082013567ffffffffffffffff8111156151b0576151af6142e7565b5b6151bc848285016143fb565b6101408301525061016082013567ffffffffffffffff8111156151e2576151e16142e7565b5b6151ee84828501615003565b6101608301525092915050565b600080604083850312156152125761521161424c565b5b600083013567ffffffffffffffff8111156152305761522f614251565b5b61523c85828601615031565b925050602061524d85828601614e76565b9150509250929050565b7f4e487b7100000000000000000000000000000000000000000000000000000000600052602260045260246000fd5b6000600282049050600182168061529e57607f821691505b6020821081036152b1576152b0615257565b5b50919050565b600082825260208201905092915050565b7f5061727479206e6f7420666f756e640000000000000000000000000000000000600082015250565b60006152fe600f836152b7565b9150615309826152c8565b602082019050919050565b6000602082019050818103600083015261532d816152f1565b9050919050565b7f53656e6465722773206164647265737320697320456d70747900000000000000600082015250565b600061536a6019836152b7565b915061537582615334565b602082019050919050565b600060208201905081810360008301526153998161535d565b9050919050565b7f6163636f756e742773206164647265737320697320456d707479000000000000600082015250565b60006153d6601a836152b7565b91506153e1826153a0565b602082019050919050565b60006020820190508181036000830152615405816153c9565b9050919050565b7f4f6e6c79206d616e7566616374757265722063616e2061646400000000000000600082015250565b60006154426019836152b7565b915061544d8261540c565b602082019050919050565b6000602082019050818103600083015261547181615435565b9050919050565b60008190508160005260206000209050919050565b60006020601f8301049050919050565b600082821b905092915050565b6000600883026154da7fffffffffffffffffffffffffffffffffffffffffffffffffffffffffffffffff8261549d565b6154e4868361549d565b95508019841693508086168417925050509392505050565b6000819050919050565b600061552161551c615517846145f9565b6154fc565b6145f9565b9050919050565b6000819050919050565b61553b83615506565b61554f61554782615528565b8484546154aa565b825550505050565b600090565b615564615557565b61556f818484615532565b505050565b5b818110156155935761558860008261555c565b600181019050615575565b5050565b601f8211156155d8576155a981615478565b6155b28461548d565b810160208510156155c1578190505b6155d56155cd8561548d565b830182615574565b50505b505050565b600082821c905092915050565b60006155fb600019846008026155dd565b1980831691505092915050565b600061561483836155ea565b9150826002028217905092915050565b61562d8261456b565b67ffffffffffffffff8111156156465761564561426c565b5b6156508254615286565b61565b828285615597565b600060209050601f83116001811461568e576000841561567c578287015190505b6156868582615608565b8655506156ee565b601f19841661569c86615478565b60005b828110156156c45784890151825560018201915060208501945060208101905061569f565b868310156156e157848901516156dd601f8916826155ea565b8355505b6001600288020188555050505b505050505050565b7f4e6f742076616c6964206f7065726174696f6e00000000000000000000000000600082015250565b600061572c6013836152b7565b9150615737826156f6565b602082019050919050565b6000602082019050818103600083015261575b8161571f565b9050919050565b600081905092915050565b60006157788261456b565b6157828185615762565b9350615792818560208601614587565b80840191505092915050565b60006157aa828461576d565b915081905092915050565b7f757365725f696420697320656d70747900000000000000000000000000000000600082015250565b60006157eb6010836152b7565b91506157f6826157b5565b602082019050919050565b6000602082019050818103600083015261581a816157de565b9050919050565b600061582c8261456b565b61583681856152b7565b9350615846818560208601614587565b61584f8161425b565b840191505092915050565b600060a08201905081810360008301526158748188615821565b905081810360208301526158888187615821565b9050818103604083015261589c8186615821565b905081810360608301526158b08185615821565b905081810360808301526158c48184615821565b90509695505050505050565b7f4e487b7100000000000000000000000000000000000000000000000000000000600052603260045260246000fd5b615908816145f9565b82525050565b600060a08201905081810360008301526159288188615821565b9050818103602083015261593c8187615821565b905081810360408301526159508186615821565b905061595f60608301856158ff565b61596c60808301846158ff565b9695505050505050565b7f4163636f756e742073686f756c64206e6f74206265206163636f756e74203000600082015250565b60006159ac601f836152b7565b91506159b782615976565b602082019050919050565b600060208201905081810360008301526159db8161599f565b9050919050565b7f63616e6e6f7420686176652073616d65206163636f756e74207769746820746860008201527f652073616d6520726f6c65000000000000000000000000000000000000000000602082015250565b6000615a3e602b836152b7565b9150615a49826159e2565b604082019050919050565b60006020820190508181036000830152615a6d81615a31565b9050919050565b615a7d81614a59565b82525050565b60006060820190508181036000830152615a9d8186615821565b90508181036020830152615ab18185615821565b9050615ac06040830184615a74565b949350505050565b7f4e487b7100000000000000000000000000000000000000000000000000000000600052601160045260246000fd5b6000615b02826145f9565b9150615b0d836145f9565b9250828201905080821115615b2557615b24615ac8565b5b92915050565b7f4e487b7100000000000000000000000000000000000000000000000000000000600052600160045260246000fd5b6000615b65826145f9565b9150615b70836145f9565b9250828203905081811115615b8857615b87615ac8565b5b92915050565b600081549050615b9d81615286565b9050919050565b60008190508160005260206000209050919050565b818103615bc7575050615c9f565b615bd082615b8e565b67ffffffffffffffff811115615be957615be861426c565b5b615bf38254615286565b615bfe828285615597565b6000601f831160018114615c2d5760008415615c1b578287015490505b615c258582615608565b865550615c98565b601f198416615c3b87615ba4565b9650615c4686615478565b60005b82811015615c6e57848901548255600182019150600185019450602081019050615c49565b86831015615c8b5784890154615c87601f8916826155ea565b8355505b6001600288020188555050505b5050505050505b565b7f4e487b7100000000000000000000000000000000000000000000000000000000600052603160045260246000fdfea2646970667358221220ff05258ce766ae73bd545a729a412a7b200f0116db4510f4bbaf2d8b99ec98c464736f6c63430008180033",
  "linkReferences": {},
  "deployedLinkReferences": {}
}